:100000006F10C01A1300000013000000130000005E
:100010001300000013000000130000001300000094
:100020001300000013000000130000001300000084
:08003000130000007300100032
:100038006FF09FFC000000006F00903B6F00903B4A
:1000480000000000000000000000000000000000A8
:100058000000000000000000000000000000000098
:100068006F003009000000006F10A00E00000000B3
:100078006F10400E6F10200E6F10000E6F10E00D05
:100088006F10C00D6F10A00D6F0070176F00F01784
:100098006F0070186F00F0186F0070196F10E00C87
:1000A8006F10C00C6F10A00C6F10800C6F10600CDC
:1000B8006F10400C6F10200C6F10000C0000000037
:1000C8000000000000000000000000006F00F016B3
:1000D8006F10C00A6F10A00A6F10800A6F10600AB4
:1000E8006F10400A6F10200A6F10000A6F10E009A5
:1000F8006F10C0096F10A0096F1080096F10600998
:100108006F1040096F1020096F1000096F10E00888
:100118006F0030156F10A0086F1080086F1060080E
:1001280000000000000000000000000000000000C7
:080138000000000000000000BF
:10014000397101436EC619A0397141536AC866CA34
:1001500062CC5ECE19A0397101535AD056D252D416
:100160004ED64AD826DA22DC06DE3301614082828E
:1001700041114AC026C222C406C68282B24D410144
:10018000024D924C224CB24B4101024B924A224A00
:10019000B2494101024992442244B2404101828065
:1001A000EFF21FFD856509461385818593850596C8
:1001B0001526B72500009385C5BA13858185E121F1
:1001C000D1BFEFF2FFFA85451385C182352CB725E3
:1001D0000000938545BA138581855121138481815F
:1001E0000C4029461385818591231C40130520036B
:1001F00085071CC037040020EF10E0491304040EEB
:100200000C4029461385818515231C4085071CC099
:1002100051B7EFF2FFF5AD472947A54621469305B3
:10022000800C1385C1821120B5B7EFF27FF42A84C8
:1002300050C914CD58CD1CD10CC52328050023204E
:1002400005002324050285453285EF10C031084C96
:100250008545EF104031484C8545EF10C0300850BF
:100260008545EF1040309147232204025CC41DB73E
:10027000EFF21FF05C4509472A84AE846398E700DB
:1002800005476389E504634CB702A9C55844914703
:100290006318F70085476386F40863C79704ADC009
:1002A00058449547631DF710A54763EA971089677F
:1002B0009387C7BB8A04BE949C4048488287638367
:1002C000F5028D478145E393F4FC4848EF10E03197
:1002D000814529A04848EF1040318545084CEF1072
:1002E000C0306DB78545D5B789476382F4048D4723
:1002F000E398F4FA48488545EF10202F81452DA852
:1003000048488545EF10602E8145084CEF10E02DE0
:10031000484C8545EF10602D81450850EF10E02CCA
:1003200041B748488145EF10402C8545F9BF484802
:100330008145EF10802B8545084CEF10002B484C71
:100340008145EF10802A8545C9BF8145EF10E0291E
:100350008545084CEF106029854509A88145EF10B7
:10036000C028084C8545EF1040288145484CEF10C7
:10037000C027814529A88145EF102027084C8545D5
:10038000EF10A026484C8145EF10202685450850E7
:10039000EF10A02585450DA08145EF10002585456E
:1003A000084CEF1080248145484CEF10002485450F
:1003B0000850EF10802381454850EF100023D9BB2F
:1003C0008545E1BF8545EF1040228145D1BF854578
:1003D000EF10A021084C8145EF1020218545E9B799
:1003E0008545EF108020084C8145EF100020484CD7
:1003F0008545EF10801F814565BF8545EF10E01EE4
:10040000814581BF8145DDBFEFF2FFD493D7F54130
:10041000B3C4B7002A849D8C6357B00485471CC1C0
:100420008549154A1149A94AA9CCEF1000261C5448
:100430005840B307F540E3E9E7FE184008D41C48EC
:1004400063173703184485071CC86394E700232803
:1004500004005C44FD140C4863924703B3E5550364
:1004600022853935D1B7CDDD2320050055BF99E36D
:100470001C441CC81C48FD171CC8E1BFB3E525037C
:10048000C5B721B30145828082807D558280EFF21D
:100490003FCE1C414111A307B100DC439305F1009D
:1004A000054682974101FDB1EFF29FCC41119305C2
:1004B000F1004105EF10A00609E50345F1004101F7
:1004C000D1B97D55EDBFEFF2BFCA2E85B285EF00E1
:1004D000D075C9B1137736009387C180BA9703C826
:1004E00007006CC12300C5041377060393070003BC
:1004F000930600606307F70093760602B336D000D8
:10050000AA0609860D8A7D168947014763E8C70058
:100510000606938701813E9603570600A1476306AE
:10052000F800A547630AF80001A00146EFF25FC496
:100530004105EF009066B9B90566CDBF13F7F50F19
:10054000D54763EDE70089679387C7C50A073E97DC
:100550001C4393F50570CD8F5CD5828093F6050C16
:100560001306000CFD57E399C6FE9306500CE3E515
:10057000E6FE93F7F5030967130747C48A07BA979E
:100580009C4309671307C7C58A07BA9793F5057097
:100590009C43D1B713F7F50FD54763EDE7008967A3
:1005A0009387C7C50A073E971C4393F50570CD8F07
:1005B0001CD5828093F6050C1306000CFD57E399B9
:1005C000C6FE9306500CE3E5E6FE93F7F5030967D4
:1005D000130747C48A07BA979C4309671307C7C51F
:1005E0008A07BA9793F505709C43D1B7EFF25FB8CD
:1005F0009307803E1CC589679387C7CB1CC10CC974
:100600002322050099452A84153F9D4522855937A7
:1006100058541C546314F700FD575CD4FD571CD884
:100620005CD88DBEEFF2DFB4B745014093850580FD
:1006300013858185653FB9BE8DC1EFF27FB341114E
:100640002A842E852EC6EF1000121C40B2452A8641
:10065000DC4322858297410135BE01458280EFF25D
:100660003FB1D93F05BEEFF2BFB01C4193F5F50F86
:100670009C43829705B6EFF2BFAFB7250000938584
:1006800005CE5D3F01BEEFF2BFAEAA8475372A8466
:100690002685D5372295FDBCEFF29FAD79712306F3
:1006A0000102854763E3C700294678102548B3D681
:1006B000C502B307D602B387F54093F7F70F9398B7
:1006C000870193D888416341180393870703E207A2
:1006D000E1877D172300F70063F6C500BA85A93FBF
:1006E00045614DBCB685E1B793877703CDB7EFF28F
:1006F0003FA82A89AE8419E61C4193F5F50F9C4367
:10070000829749BC2947631FE60063DF0500930514
:10071000D002913F2A842946B30590404A85AD3FD7
:100720002295C5B71376F60F853FE1BFEFF25FA4C0
:10073000AA84753F2A8426853D3F2295A1BCEFF20D
:100740003FA32A84EF00B07348C41C402285DC4BD1
:100750008297635A0500EF0090725C441D8D1C4423
:10076000E365F5FE7D553DB4EFF29FA04111AA84EB
:1007700001442EC632C4630EC4002685C937634ABD
:100780000500B2452246B38785002380A7000504F3
:10079000CDB7228541016FF0FF9FEFF2DF9B01444F
:1007A0009DC2B68432892E8AAA8901444E85413F72
:1007B000634B050063094501B30789002380A70047
:1007C0000504E39584FE22856FF03F9CEFF25F9A6B
:1007D000FD2A6FF03F9C994763EAA706EFF25F9905
:1007E0008967938747CE0A053E951C4185458287D8
:1007F0001145E121371501401305058021A8214548
:100800006D2937150140130505C029A04145752103
:10081000371501406FF01F9813050002792937152D
:10082000014013050540FDB7130500047921372564
:100830000140D9B713050008492137250140E1B728
:10084000130500109D2937250140E9B70145828035
:1008500003A5018283A5418282808280EFF25F91AD
:10086000C53F6FF03F93EFF21F8FDD3737F900E0A0
:1008700083248900AA892E84032A4900D13F832733
:100880008900AA8A03254900032709018326C90094
:1008900013861600B336D600BA96639459016309DD
:1008A000B4023305A640B335A600B387F64013045F
:1008B000803E8D8FB307F402B335A4023305A40242
:1008C000BE9533045403EF00507422956FF0FF8BF4
:1008D00033054641B335A600B38496401304803EE9
:1008E0008D8CB3049402B335A4023305A402A695FB
:1008F000EF00B07133043403C9BFB7F700E023A0A1
:10090000070013870182032307008323470013088E
:1009100013003335680023200701B306750054C364
:1009200023820700A382070023830700A383070015
:1009300023840700A384070023850700A3850700FD
:10094000054798C3193F7300203003A7818089674A
:10095000938707F43357F702B7F700E023A00700A7
:1009600023820700A382070023830700A3830700D5
:1009700023840700A384070023850700A3850700BD
:100980007D179376F70F2386D7009356870093F64B
:10099000F60FA386D7009356070193F6F60F238729
:1009A000D7006183A387E70023880700A388070097
:1009B00023890700A389070037E700E0FD562306D7
:1009C000D74085662320D710054798C38280EFF271
:1009D0002FFAA53F6FF00FFC814705476307E5003D
:1009E0008507058193F7F70FD5BF370700208E07DE
:1009F0001307C701BA97DC4391C7EFF26FF78297ED
:100A00006FF04FF98280054579200545F137730075
:100A10002030094549200945C13773002030114570
:100A20009D281145553F730020302145AD202145BB
:100A30006537730020304145B9284145713F730047
:100A40002030411122C626C4130400029544228599
:100A50009920131504014181FD14BD3F0604E5F8FA
:100A60003244A244410173002030411122C626C401
:100A7000130400409944228539281315040141814B
:100A8000FD14993F0604E5F83244A2444101730085
:100A9000203082808280B707014023AAA74082804D
:100AA0009C4513F7070113F8F70001C7D8413368D5
:100AB000E80083D5050013F7F50F39C318418146C7
:100AC000854E3D4F930F800293028004214E339652
:100AD000DE00B3F8C50063111603939826003313A4
:100AE0001F011343F3FF3377E300B318180133E713
:100AF000E800639FF70550C98506E39AC6FD18C153
:100B00001307F00F6375B70454412146854E3D4FDE
:100B1000930F800293028004414EB398CE0033F7C6
:100B200015016392E8021317260001173313EF0033
:100B30001343F3FFB376D3003317E800D98E639DD8
:100B4000F701232A15010506E319C6FD54C1828069
:100B5000E39457FA10C94DB7E39757FE23281501C0
:100B6000DDB70CC982804CC98280B707014063574A
:100B70000504D84FB7073000931605013376F5000A
:100B8000C182631FF602370600F17D163708014067
:100B9000B377C70003274800798E2322C80089C98C
:100BA000135755011377F73F12073397E600D98F94
:100BB00037070140635005045CCF8280D8435DBF96
:100BC0009317B50063D007029357050113F6F7009A
:100BD0008D47B397C70093C7F7FFF98F3707000F0B
:100BE000D98F75BF9357550193F7F73F9207B39786
:100BF000F600D5B75CC382807300203001A03717A0
:100C000002405C439146B18B6385D700A146638661
:100C1000D706B7177A00938707201CC13716024002
:100C20005C42370700201307C7099183BD8BBA9731
:100C300083C607001C41B3D7D7005CC15442A182D0
:100C40009D8ABA9683C60600B3D6D70014C554420F
:100C5000AD829D8A369703470700B3D7E7005CC58E
:100C6000584239839376370013874180369703477C
:100C70000700B3D7E7021CC982805C435443C98391
:100C8000BD8B1396F6008907634D06003747024077
:100C900003270780418B19CB37177A0013070720EA
:100CA00011A858439316E700E3D806FE37173D0016
:100CB00013070790B387E7028DB799C5371702402E
:100CC0001C4F5D8D08CF8280B7170240984F1345A7
:100CD000F5FF798D88CF828099C5371702405C4F28
:100CE0005D8D48CF8280B7170240D84F1345F5FF7E
:100CF000798DC8CF8280EFF2AFC783560501F577B3
:100D0000FD17F58F83D6650003D7C5007971D58FA0
:100D10002318F5008356C500FD779387379FF58F1D
:100D200083D645002A842EC6D58F83D68500D58FDD
:100D300083D6A500D58F2316F50083574501C2073A
:100D4000C18393F7F7CFD98F231AF5006808453D83
:100D5000B747014093870780B245631DF404A2574B
:100D60008356C4006547B387E702C206C18698412F
:100D700063D4060406070356C4004206B3D7E7024D
:100D8000130740064186B3D6E702B3F7E70292069F
:100D9000635606028E0793872703B3D7E70213F73C
:100DA0007700B367D700C207C1832314F4004561FD
:100DB0006FF04FBE92576DB70A0775BF92079387C2
:100DC0002703B3D7E702BD8BD58FF1BF81C9835706
:100DD000C5000967D98F2316F50082800357C50027
:100DE000F977FD17F98FC5BF93F5F51F2312B500ED
:100DF0008280035545001375F51F82808357450196
:100E000091C593E78700231AF5008280C207C1834A
:100E1000DD9BC207C183C5BF035505006D8D33350A
:100E2000A0008280B71702409843B706FFF841112F
:100E30001367170098C3D84337060200758FD8C3CD
:100E40009843B706F7FEFD16758F98C39843B7060B
:100E5000FCFFFD16758F98C3D843B70681FFFD16BA
:100E6000758FD8C337079F0098C702C402C698433E
:100E7000C166558F98C3B7160240130700509C42B5
:100E8000F18F3EC6A24785073EC4B24781E7A2471D
:100E9000E397E7FEB71702409C431397E7006354BC
:100EA000070885473EC632478547631CF706B727C4
:100EB00002409843B706C1FFFD161367070198C3A8
:100EC0009843719B98C398431367270098C3B7173B
:100ED0000240D843D8C3D843D8C3D8431367074088
:100EE000D8C3D843758FD8C3D843B7061D00558FD4
:100EF000D8C39843B7060001558F98C398439316FB
:100F00006700E3DD06FED843B7160240719BD8C3E5
:100F1000D84313672700D8C32147DC42B18BE39E37
:100F2000E7FE4101828002C6BDBFEFF2CFA24111B0
:100F300002C202C402C6FD576313F50001A09377F5
:100F4000F500139727008967938707D9118113D478
:100F50008540BA973D89AE8403A907001374F4074E
:100F6000EFF07F87AA891DC085450545B9337D14FB
:100F70009307300263EC87008967938707D00A04E0
:100F80003E941C40828785450545C53693D724404D
:100F900013F734008D8B630107123AC40947638944
:100FA000E7100D476388E71005476381E710C147E5
:100FB0003EC631AA8145C9BF85450945F9B7814576
:100FC000EDBF85451145D1B78145EDBF854521452B
:100FD0006DBF8145EDBF8545370514001305050339
:100FE0006DB7370514008545410545B78145EDB717
:100FF0008545370516001305050C41BF370516005A
:1010000085451305050451B78145E5B78545370585
:1010100018001305053095BF3705180085451305E1
:101020000520A5B737051800854513050510B1BF84
:101030008145F1BF854537151A00130505C0B1B7C5
:1010400037151A0085451305058081B78145E5B739
:10105000854505651DBF8145EDBF854537451D00AB
:101060002DB7854537651D000DB78145E5BF854521
:10107000216521BF8145EDBF854537052000090564
:1010800029B78145DDBF8545370520001105F5BD30
:101090008145DDBF37053000854513050540F5B5B1
:1010A000814537252000D5B58545E5BFD14709B72E
:1010B000E147FDBDF147EDBD05476383E70299C7F1
:1010C00089466381D70293078002DDB502C64C00D2
:1010D0004E8523122101EFF0BF9C41016FF0EF8A92
:1010E0009147F9B591848D8893078004E39DE4FCD2
:1010F000C1B5FD577D57631CF50082806398A7003A
:10110000EFF20F878C4515356FF0CF88B1059C4104
:10111000E396E7FE01A07D579C416394E7000145FB
:1011200082806394A700C8418280B105F5B7FD575E
:101130006307F500EFF2CF83F93F6FF0AF8501450C
:1011400082806305B50019C181E5AA852E8582805C
:101150008145EDBF01A001A001A001A001A001A057
:1011600001A001A001A001A001A001A001A001A077
:1011700001A001A001A001A001A001A001A001A067
:1011800001A001A001A001A001A001A001A001A057
:1011900001A001A001A001A001A001A001A001A047
:1011A00001A001A001A001A001A001A097F1FF1FD3
:1011B00093814173174100201301C1E4171500000A
:1011C000130585D397F5FF1F9385C5E313868181AA
:1011D00063FAC5008322050023A05500110591057F
:1011E000E3EAC5FE13858181938501946377B50099
:1011F000232005001105E36DB5FE9302800873A05E
:10120000023097F2FFFF938262E393E21200739041
:101210005230170500001305C54A6929F129EFF07E
:101220007FC09702000093822233739012347300C0
:101230002030EFE2FFF02A84084D896C41112E8C9A
:101240009385CCC2B28BB68A3A8BD5352AC6484C28
:10125000096A93054AC1E13DAA84085089699385CA
:10126000C9BFF135AA8D48500969930549BEC135FA
:10127000B247638F070C544C7D572A8D6384E60078
:101280006388040C14507D576384E60063820D0C60
:1012900054507D576384E600630C0D0A3E85A68595
:1012A0004D35EE8508C0713D08C0EA85593D08C03E
:1012B00045C1B747014093870780631EF508854500
:1012C0001165EFF09F9F93075003230604021CD47F
:1012D000084C9385CCC2313D89C4484C93054AC122
:1012E000093D014A63880D0008509385C9BF130A60
:1012F0000010013563080D004850930549BE136A7C
:101300000A20C53B8347C402084023248401139765
:1013100027009387018ABA971307440098C3B147FF
:1013200048C023167401231764012318540123199C
:10133000F400231A440181E48545EFF03FAC4840B6
:1013400093058400EFF03F9B48408545EFF01FA8D0
:1013500041016FE0BFE2B747004093870740631D3C
:10136000F500854537050200EFF01F9785472306F6
:10137000F40293076003A1BFB7570040938707802B
:10138000E318F5F4854537050400EFF0FF9489472D
:101390002306F402930770031DBF11C5EFE25FDD62
:1013A000493D6FE03FDF8280EFE29FDC896703A465
:1013B00087C789659385C5C22285953B19CD3705B9
:1013C0000020F1659307C50A0147814601469385D0
:1013D00005201305C50A80CFA93D6FE0BFDBEFE212
:1013E0003FD98347C50293050002139727009387CF
:1013F000018ABA979C438843EFF01FA2133515006A
:101400006FE05FD9EFE2DFD68347C50293050004A2
:10141000139727009387018ABA979C438843EFF07C
:10142000BF9F133515006FE0FFD6EFE2FFD1370401
:101430000020AA84AE89EFF0AFC19307C40A03C7A6
:10144000C70291472A8A1304C40A63E7E7040347E3
:10145000C4029387018A0A07BA9703A90700938AEF
:10146000018A711963030904130B703E4A85593FC1
:1014700041ED338A3401638B44034A85613775FD3E
:101480008347C402850483C5F4FF8A07D6979C432B
:101490008843EFF07F95C5B7896703AB87C70969B4
:1014A0009305C9C25A85613109E581494E856FE0CE
:1014B0003FCD23060402914B938A018A8347C402DD
:1014C00063F9FB00D5350347C4029147E3F1E7F820
:1014D000E9BF8A07D6979C4399E78347C4028507EB
:1014E0002306F402E1BF9305C9C25A85EFF03FC459
:1014F0000347C40293172700D6979C439C43E39E5F
:10150000A7FCE3F6EBF47DBFEFF08FB4B3074541E2
:101510003335F500E39BA5F8E37AFBF479B711E5E1
:101520007D5582807D556FE0FFC6EFE27FC42A843F
:10153000AE84753565F98347C402139727009387F6
:10154000018ABA979C438843EFF0BF8A2380A400A6
:101550000145D1BFEFE2DFC1EFF04FA7EFE05FC47D
:10156000EFE03FC6F5BF9377F50F5547636AF70283
:1015700009678A071307C7C5BA979C431375057097
:101580005D8DFD576302F506954763EEB704EFE204
:101590003FBE8967938707DD8A05BE959C41828798
:1015A0001377050C9306000C6310D7041307500C37
:1015B000636CF7029377F50309678A07130747C43B
:1015C000BA979C4375B79145EFF03F966FE09FBC8B
:1015D0008D45DDBFE145CDBF93058002F5B781455F
:1015E000E5B79D45D5B701A08280EFE27FB81377BC
:1015F000F50FD5472E8663E5E70489679387C7C54E
:101600000A073E971C4313750570C98F13D747000F
:101610003D8B9946014563E9E600B70600200A07BD
:101620009386060036970843BD8B0547B317F7002E
:1016300093950701C18129C2EFF0AFD26FE09FB54A
:101640009376050C9305000CFD57E391B6FC9306C9
:10165000500CE3EDE6FA9377F5030967130747C4E7
:101660008A07BA979C4309671307C7C58A07BA97C1
:10167000137505709C4351BFEFF0EFCEC1B7EFE299
:101680003FAFEFF0AF9D6FE0FFB0EFE27FAEEFF066
:101690008F9D6FE03FB011CDEFE29FAD2A84EFF058
:1016A000EF9BAA84EFF08F9B058DE36D85FE6FE0C5
:1016B0007FAE8280AA8581460146014575A8411109
:1016C000971700009387478322C417140000130460
:1016D000A4821D8C26C206C60984BE8419E4224455
:1016E000B240924441016FF0CFBA7D1493172400A9
:1016F000A6979C438297DDB7411197070000938717
:10170000E77E22C4170400001304447E1D8C26C209
:101710004AC006C6098481443E8963988402EFF07A
:101720006FB7970700009387677C170400001304C6
:10173000A47C1D8C098481443E89639F8400B2404F
:101740002244924402494101828093972400CA971F
:101750009C4385048297D1B793972400CA979C43F2
:1017600085048297D9BFAA87850703C7F7FF6DFF56
:101770003385A7407D158280938781829C432A8E82
:1017800099EF1387418B23A4E18217F5FFFF13051F
:101790006587BA8709C51C4123AEF192BA87D84341
:1017A0007D487D556347E804630E0E0203A8870851
:1017B0006301080493182700C29823A0C8000323DC
:1017C000081005463316E6003363C3002320681073
:1017D00023A0D80889466317DE0083264810558E5B
:1017E0002322C810930617000A07D4C3BA978CC7E0
:1017F0000145828097F7FFFF9387C78091C7170540
:101800000000130505EC7DB58280B687B2882A8377
:101810002E88639D061463F9C50A4167636EE61A54
:10182000B70700016363F63493568601E147170753
:1018300000001307A75B369703470700BA97130703
:1018400000021D8F19CB3398E500B357F500B3188C
:10185000E60033E807013313E50013D608013355DA
:10186000C80293960801C182935703013377C802D7
:10187000B385A60242073368F700637AB80046983A
:101880009307F5FF636418016367B8303E8533083A
:10189000B8403357C8024203135303013378C802D8
:1018A000B386E602420833686800637BD800469836
:1018B0009307F7FF6365180179176363D8003E87C4
:1018C0004205598D8145828001E60547B358C7021C
:1018D000416763EAE80EB707000163ECF82893D686
:1018E0008801E147170700001307475036978346E2
:1018F0000700BE9693070002958FE5EB939E0801C3
:101900003387154113DF080193DE0E018545935798
:1019100003013355E7033377E703B306D5034207E3
:10192000D98F63FAD700C6971307F5FF63E4170151
:1019300063E6D7263A85958F33D7E70342031353DF
:101940000301B3F7E703B30ED703C207B3E767009A
:1019500063FBD701C6979306F7FF63E51701791775
:1019600063E3D70136874205598D828063E2D5044F
:10197000C16763E2F604B707000163E4F61E13D7FC
:10198000860161489707000093874746BA9703C7C7
:101990000700130E00024297330EEE40631A0E0C3E
:1019A00063EDB61C3335C5001345150081458280B3
:1019B0008145014582809307F00F63F3D71C13D74D
:1019C00086002148C1B71307F00FC686E37C17F1E4
:1019D00093D68800A14739B71307F00FB286E37892
:1019E000C7E493568600A14799B5B398F80033D65B
:1019F000D50013DF0801335EE6033397F500B356D5
:101A0000D500558F939E080193DE0E013313F50028
:101A100093550701B376E603B387CE03C206CD8E96
:101A200063FBF600C6961306FEFF63E4161763F227
:101A3000F616791EC6969D8E33D6E60393170701D8
:101A4000C183B3F6E6033385CE02139706015D8F9B
:101A5000637BA70046979307F6FF636817136376C7
:101A6000A7127916469793150E01098FD18D45B5AA
:101A7000B357E600B396C601DD8E33D3E50013DF1E
:101A80000601B357E303939E060193DE0E013398DC
:101A9000C5013357E5003368070193580801331631
:101AA000C6013373E303B385FE024203B368130137
:101AB00063FBB800B6981387F7FF63EAD80C63F8A6
:101AC000B80CF917B698B388B84033D7E803420882
:101AD00013580801B3F8E8033383EE02C208B3E5F4
:101AE000080163FB6500B6951308F7FF63EDD508A1
:101AF00063FB65087917B695C207416FD98F130745
:101B0000FFFFB3F6E70093D80701718F4182B38ED0
:101B1000E602B3856540B386C60213D80E0133874B
:101B2000E802BA96C2963386C80263F3E6007A9654
:101B300093D80601469663E2C5026385C5003E85DB
:101B40008145828041677D17F98EC206B3FEEE00A3
:101B50003315C501F696E374D5FE1385F7FF81456D
:101B6000828013D70601414831BD93560601C14713
:101B70007DB993D60801C147B5B38145054582803B
:101B80003687014801B5428785BF3E86E9BDBA87E1
:101B90001DBF328E4DB579154698D5B97915C697C2
:101BA00059BB000073746570733A000043483332C8
:101BB0005631303343385436000000004A030000E9
:101BC0005C0300007603000098030000C0030000DF
:101BD000C4030000CE030000E0030000FA0300008D
:101BE00004040000FFFFFFFF003801401800000060
:101BF000FFFFFFFF0000000000000000FFFFFFFFED
:101C0000003801400B000000FFFFFFFF0000000054
:101C1000000000000A000000003801401800000029
:101C2000FFFFFFFF000000000000000009000000AF
:101C3000003801400B000000FFFFFFFF0000000024
:101C40000000000000000000010000000200000091
:101C50000300000004000000050000000000000078
:101C6000010000000200000003000000040000006A
:101C7000050000000A000000090000001400000038
:101C800016000000170000001800000019000000F6
:101C90000800000011000000100000001C000000FF
:101CA0001F0000001E0000001D0000001B000000BF
:101CB0001A00000000000000000000008E04000078
:101CC000C604000084040000880400008A040000A8
:101CD000A80400008A040000680700009A070000BA
:101CE0000D0A0000F0070000FE0700000C080000CD
:101CF0001808000028080000340800004008000010
:101D0000860F0000B40F0000B80F0000BE0F0000E7
:101D1000C20F0000C80F0000CC0F0000D20F00005F
:101D2000D60F0000E20F0000EC0F0000F00F0000E3
:101D3000FC0F0000081000000C1000002410000030
:101D40001810000030100000341000004010000097
:101D50004C10000050100000561000005A100000F7
:101D6000621000006A1000006E1000007410000085
:101D70007810000082100000861000009010000013
:101D80009410000094100000A8100000A0100000A3
:101D90000100000002000000040000000800000034
:101DA0001000000020000000400000008000000043
:101DB0000001000000020000000400000008000014
:101DC0000010000000200000004000000080000023
:101DD000C6150000D0150000D4150000D81500006D
:101DE000DE150000E21500000001020203030303F8
:101DF000040404040404040405050505050505059B
:101E0000050505050505050506060606060606067A
:101E10000606060606060606060606060606060662
:101E2000060606060606060607070707070707074A
:101E30000707070707070707070707070707070732
:101E40000707070707070707070707070707070722
:101E50000707070707070707070707070707070712
:101E600007070707070707070808080808080808FA
:101E700008080808080808080808080808080808E2
:101E800008080808080808080808080808080808D2
:101E900008080808080808080808080808080808C2
:101EA00008080808080808080808080808080808B2
:101EB00008080808080808080808080808080808A2
:101EC0000808080808080808080808080808080892
:101ED0000808080808080808080808080808080882
:081EE0000808080808080808BA
:0C1EE800F41700001202000024060000A5
:101EF40000080140000C01400010014000140140A2
:101F040000180140001C01400020014016000000A0
:101F1400000000001700000000000000180000008E
:101F24000000000019000000000000001A0000007A
:101F3400000000002700000000000000270000004F
:101F4400000000002700000000000000270000003F
:101F54000000000027000000000000000000000056
:101F6400000000000000000000000000000000006D
:101F7400000000000000000000000000000000005D
:101F8400000000000000000000000000000000004D
:101F9400010203040102030406070809000000000B
:101FA400000000000000000000000000000000002D
:101FB40000000000FFFFFFFFFFFFFFFFFFFFFFFF29
:101FC400FFFFFFFF0000000005000000000000000C
:101FD400010000000204060800A24A0406070809DA
:081FE400001000200030000095
:00000001FF
